:100000000C945A000C9477000C94EA080C94770036
:100010000C9477000C9477000C9477000C94770084
:100020000C9477000C9477000C9477000C94770074
:100030000C9477000C9477000C9477000C94770064
:100040000C9477000C9477000C9477000C94770054
:100050000C9477000C9432010C9477000C94770088
:100060000C9477000C9477000C9477000C94770034
:100070000C9477000C9477000C9477000C94770024
:100080000C9477000C9477000C9477000C94770014
:100090000C9477000C9477000C9477000C94770004
:1000A0000C9477000C9477000C9446080C9477001D
:1000B0000C94770011241FBECFEFD8E0DEBFCDBF78
:1000C00011E0A0E0B1E0EAE9FCE102C005900D9288
:1000D000AE37B107D9F721E0AEE7B1E001C01D921C
:1000E000AC38B207E1F70E94F2020C944B0E0C946C
:1000F0000000ECE7F0E010829081906490839081A2
:100100009083811105C010927F018081808308C097
:1001100082E080937F01ECE7F0E080818260808361
:10012000EAE7F0E0108280818760808380818062CE
:10013000808310927B0080818068808380818064CE
:10014000808380818860808310927E0178940895F6
:100150008091030190910401089580910101909193
:1001600002010895F89460918A0170918B0178944E
:1001700080E090E00E94150A20E030E44CE950E471
:100180000E94CC0A20E030E04AEF53E40E94FB08D2
:1001900020E030E040E251E40E946D0926E636E6B8
:1001A00046EE5FE30E94CC0A20E030E040E052E4FB
:1001B0000E94FC080895409100018F3F910538F49A
:1001C0006E3A710520F0623523E0720780F18130CC
:1001D00023E0920738F06E3A710520F0623523E093
:1001E000720738F16F3F710538F48E3A910520F0AF
:1001F000823523E09207F8F0613023E0720738F08F
:100200008E3A910520F0823523E09207B0F0443019
:10021000B9F09C01265731402431314088F46637CB
:1002200021E0720768F06A38724048F009C042E085
:1002300007C043E005C040E003C041E001C044E026
:1002400040930001842F08958AB18F7E8AB98BB1C3
:1002500080618BB9089589B182958F7091E089276B
:10026000817008951F920F920FB60F9211242F9351
:100270003F938F939F93EF93FF9380917E01882309
:1002800019F010927E0165C080917F01811122C01A
:100290008091780090E09093040180930301809115
:1002A000790090E0982F8827209103013091040174
:1002B000822B932B909304018093030191E0909300
:1002C0007F01ECE7F0E08081807F81608083909304
:1002D0007E013FC080917F01813009F580917800D7
:1002E00090E090930201809301018091790090E069
:1002F000982F88272091010130910201822B932BA6
:10030000909302018093010110927F01ECE7F0E0ED
:100310008081807F808381E080937E011AC08091FC
:100320007F018230B1F48091780090E090938B014E
:1003300080938A018091790090E0982F88272091FE
:100340008A0130918B01822B932B90938B018093A8
:100350008A01FF91EF919F918F913F912F910F9083
:100360000FBE0F901F9018951092B90088E48093EB
:10037000B80084E08093BC00089584EA8093BC00B8
:100380008091BC008823E4F708958093BB0084E843
:100390008093BC008091BC008823E4F7089580938B
:1003A000BB0084E88093BC008091BC008823E4F704
:1003B000089584E98093BC000895CF93C82F0E94CC
:1003C000BD018EE40E94C5018C2F0E94CF010E94C6
:1003D000D901CF9108950F931F93CF93DF938C0191
:1003E000EC01CB7FCE010E94DD0185E08A95F1F71B
:1003F0000000C80184600E94DD0195E09A95F1F744
:100400000000CE010E94DD0187EC90E00197F1F73A
:1004100000C00000DF91CF911F910F9108950E94BD
:10042000EB0108950F931F93CF93DF93EC018B01A2
:10043000807F99278860862B972B8D7F0E940F02E3
:100440008FE99FE00197F1F700C00000CE0182958F
:100450009295907F9827807F982799278860802B96
:10046000912B8D7F0E940F0287EC90E00197F1F7AE
:1004700000C00000DF91CF911F910F91089560E0BF
:1004800070E090E00E94120208950E94B4012FEFE4
:1004900080E792E0215080409040E1F700C00000EA
:1004A00088E390E00E940F028FE19EE40197F1F74C
:1004B00000C0000088E390E00E940F028FE99FE0F7
:1004C0000197F1F700C0000088E390E00E940F025E
:1004D0008FE99FE00197F1F700C0000088E290E00B
:1004E0000E940F028FE99FE00197F1F700C0000022
:1004F00088E20E943F0287EC90E00197F1F700C08C
:10050000000088E00E943F0287EC90E00197F1F73D
:1005100000C0000081E00E943F028FE39FE101974D
:10052000F1F700C0000086E00E943F0287EC90E0F7
:100530000197F1F700C000008CE00E943F0287ECB9
:1005400090E00197F1F700C000000895CF93DF938A
:1005500000D000D0CDB7DEB790E8998390EC9A83B5
:1005600094E99B8394ED9C83E62FF0E0319721E0A2
:1005700030E02C0F3D1FE20FF31F9081890F815057
:100580000E943F028FE891E00197F1F700C0000060
:100590000F900F900F900F90DF91CF91089581E011
:1005A0000E943F028FE39FE10197F1F700C0000036
:1005B000089561E070E090E00E94120208950F93A8
:1005C0001F93CF938C01C0E003C00E94D902CF5F7C
:1005D000F801EC0FF11D80818111F7CFCF911F91B0
:1005E0000F9108950E94450280E00E9479000E94C8
:1005F00024010E947C070E9409080E94CF020E94E9
:1006000048030E94B704823439F40E9401050E9415
:10061000CF020E9448030DC0823529F481E090E0AA
:100620000E94230306C08C3421F48FEF9FEF0E94B9
:1006300023032FEF83EC99E0215080409040E1F7B5
:1006400000C00000DACF2091050130910601820F31
:10065000931F90930601809305011816190634F034
:1006600087E090E090930601809305018091050159
:1006700090910601089734F081E090E09093060194
:1006800080930501089580910501909106010895D8
:100690000F931F93CF93DF93CDB7DEB7CB56D1091E
:1006A0000FB6F894DEBF0FBECDBF8AE0E9E2F1E0FD
:1006B000DE01119601900D928A95E1F78FE0E3E358
:1006C000F1E0DE011B9601900D928A95E1F78AE038
:1006D000E2E4F1E0DE015A9601900D928A95E1F78D
:1006E0008FE49EE69DA38CA31EA28FE496E698A7B6
:1006F0008FA386E690E09AA789A787E0ECE4F1E073
:10070000DE019B9601900D928A95E1F785E0E3E585
:10071000F1E0DE01D29601900D928A95E1F78AE030
:10072000E8E5F1E0DE01D79601900D928A95E1F7B8
:100730008AE0E2E6F1E0DE01AF5BBF4F01900D928F
:100740008A95E1F785E0ECE6F1E0DE01A55BBF4FBD
:1007500001900D928A95E1F78CE0E1E7F1E0DE018E
:10076000A05BBF4F01900D928A95E1F70E94430371
:10077000019781F461E081E00E94A602CE0101961A
:100780000E94DF0262E081E00E94A602CE010B9689
:100790000E94DF020E9443030297B9F461E081E006
:1007A0000E94A602CE014A960E94DF0262E081E02A
:1007B0000E94A6020E942A05892B19F0CE01849678
:1007C00002C0CE0187960E94DF020E944303039776
:1007D000B9F461E081E00E94A6020E945B05892BCA
:1007E00019F0CE018B9602C0CE01C2960E94DF02A4
:1007F00062E081E00E94A602CE0184960E94DF02A0
:100800000E944303049721F561E081E00E94A60263
:10081000CE01C7960E94DF0262E081E00E94A6023C
:100820000E94DC059F938F9381E191E09F938F93CA
:100830008E01045A1F4F1F930F930E94610BC80132
:100840000E94DF020F900F900F900F900F900F906B
:100850000E944303059729F561E081E00E94A6020A
:10086000CE018F5B9F4F0E94DF0262E081E00E9419
:10087000A6020E948C069F938F9381E191E09F9343
:100880008F938E01045A1F4F1F930F930E94610B89
:10089000C8010E94DF020F900F900F900F900F90F1
:1008A0000F900E944303069769F561E081E00E9482
:1008B000A602CE01855B9F4F0E94DF0262E081E0CD
:1008C0000E94A6020E94B20020E030E040E05FE318
:1008D0000E94FC080E94DF097F936F9388E191E0FA
:1008E0009F938F938E01045A1F4F1F930F930E9463
:1008F000610BC8010E94DF020F900F900F900F90C4
:100900000F900F900E944303079729F561E081E063
:100910000E94A602CE01805B9F4F0E94DF0262E030
:1009200081E00E94A6020E94E6079F938F9382E2D5
:1009300091E09F938F938E01045A1F4F1F930F9343
:100940000E94610BC8010E94DF020F900F900F9070
:100950000F900F900F90C559DF4F0FB6F894DEBF80
:100960000FBECDBFDF91CF911F910F9108950F93CF
:100970001F93CF93DF93C4E00E942B01882379F06B
:100980002FEF80E792E0215080409040E1F700C0D7
:1009900000000E942B018111FCCF82E42DC00E9437
:1009A000AD008C010E94A800B8010E94DB00D82F86
:1009B000C43011F48330C9F0C43011F4D230B9F02E
:1009C000C43011F4DD23A9F0C43011F4D13099F012
:1009D0002FEF86E791E0215080409040E1F700C082
:1009E00000000E944803CD2FC7CF82E505C08CE4EC
:1009F00003C085E501C084E4DF91CF911F910F9181
:100A00000895809105019091060184309105C9F007
:100A100034F48230910549F0039751F00895853000
:100A2000910591F0069799F008950E942F05089579
:100A30000E94600580E695E0019759F40E948505C3
:100A400008950E94E10508950E94910608950E946C
:100A500032070895809182019091830108950E9448
:100A6000CF020E9448032FEF83EC99E02150804091
:100A70009040E1F700C000000E94B7048234D1F03A
:100A8000853511F0843459F781E090E0209182019E
:100A900030918301232B11F080E090E0909383014B
:100AA00080938201019719F40E949907D8CF0E9480
:100AB000B307D5CF08958091800190918101089569
:100AC0000E94CF020E9448032FEF83EC99E021504F
:100AD00080409040E1F700C000000E94B7048234DB
:100AE00099F08C3411F0823559F781E090E0209133
:100AF000800130918101232B11F080E090E09093F0
:100B0000810180938001DCCF0895809182019091D2
:100B10008301019709F046C0809180019091810185
:100B2000019709F03FC00E94B20020E030E040E0B1
:100B30005FE30E94FC080E94DF09663471055CF4E3
:100B400089E190E00E94BA0760E070E084E392E4FB
:100B50000E940F080895603571055CF482E390E00F
:100B60000E94BA0760E070E084EB92E40E940F08F4
:100B700008956A3571055CF48BE490E00E94BA0731
:100B800060E070E087E093E40E940F08089584E637
:100B900090E00E94BA0760E070E084E393E40E9472
:100BA0000F08089580E090E00E94BA0760E070E0CE
:100BB000CB010E940F0808958091090190910A01CC
:100BC00008950E94CF020E9448032FEF83EC99E022
:100BD000215080409040E1F700C000000E94B7041F
:100BE000823409F498C0843409F049C08091090125
:100BF00090910A01019790930A018093090199232A
:100C00009CF484E090E090930A0180930901809124
:100C10008201909183010197C1F460E070E084E368
:100C200093E40E940F0811C005977CF010920A010E
:100C3000109209018091820190918301019729F41A
:100C400060E070E0CB010E940F08809182019091DA
:100C50008301019709F0B5CF8091090190910A01B4
:100C60002DE2289FB001299F700D1124072E000C42
:100C7000880B990B0E94170A0E940F08A2CF853596
:100C800009F09FCF8091090190910A0101969093FC
:100C90000A018093090199239CF484E090E09093E9
:100CA0000A0180930901809182019091830101974B
:100CB000C1F460E070E084E393E40E940F0811C087
:100CC00005977CF010920A0110920901809182012F
:100CD00090918301019729F460E070E0CB010E94BC
:100CE0000F088091820190918301019709F069CFEB
:100CF0008091090190910A012DE2289FB001299F5E
:100D0000700D1124072E000C880B990B0E94170AF6
:100D10000E940F0856CF0895809107019091080115
:100D200008950E94CF020E9448032FEF43EC59E040
:100D3000215040405040E1F700C000000E94B7043D
:100D4000823409F48EC0843409F044C080910701D4
:100D5000909108010197909308018093070118165C
:100D600019068CF084E090E09093080180930701CD
:100D700080918201909183010197B9F484E690E01B
:100D80000E94BA0712C0059784F081E090E090932A
:100D9000080180930701809182019091830101975E
:100DA00021F489E190E00E94BA078091820190913C
:100DB0008301019709F0B5CF809107019091080157
:100DC00029E1AC01249FC001259F900D11240E94B0
:100DD000BA07A7CF853509F0A4CF8091070190917C
:100DE00008010196909308018093070118161906CF
:100DF0008CF084E090E0909308018093070180914B
:100E00008201909183010197B9F484E690E00E94F9
:100E1000BA0712C0059784F081E090E09093080132
:100E2000809307018091820190918301019721F4C1
:100E300089E190E00E94BA0780918201909183013C
:100E4000019709F06ECF809107019091080129E187
:100E5000AC01249FC001259F900D11240E94BA0768
:100E600060CF089581E00E9479000E94CF020E9425
:100E700048032FEF83EC99E0215080409040E1F748
:100E800000C000000E94B704823479F780E00E941D
:100E90007900089582E28093900089E18093910027
:100EA0008FE792E0909397008093960010929B00BA
:100EB00010929A0010929500109294000895E0EA22
:100EC000F0E0808180648083E1EAF0E080818D60E1
:100ED000808389B3826089BBE2E7F0E08081826031
:100EE000808388E09DE39093A9008093A8001092EE
:100EF000A5001092A40008958AB184608AB98BB1CC
:100F000084608BB98AB1877F8AB90E944A070E94A0
:100F10005F078BB188608BB9E9E6F0E0808188607B
:100F2000808380818B7F80838DB382608DBB78943A
:100F3000089581E08093890160910F017091100103
:100F4000072E000C880B990B0E94170A21EE3AE736
:100F50004CEC50E40E94CC0A0E94E60970939B007E
:100F600060939A0008951092890110929B0010924C
:100F70009A000895CF92DF92EF92FF929093100122
:100F800080930F01BC01990F880B990B0E94170ADF
:100F900021EE3AE74CEC50E40E94CC0A6B017C0154
:100FA0006091890170E080E090E00E94170AA7013B
:100FB00096010E94CC0A0E94E60970939B00609300
:100FC0009A00FF90EF90DF90CF9008958091860176
:100FD000909187010895E0E8F0E080818068808347
:100FE000E1E8F0E08081806180838081826080839D
:100FF00080E29EE490938700809386008CED95E0DC
:10100000909389008093880010928500109284004C
:10101000089584B1826084B90E94EB070895CF924D
:10102000DF92EF92FF926B017C018091840190919D
:101030008501892B31F520E030E0A901C701B60117
:101040000E94680988231CF4C12CD12C760120E071
:1010500030E044E353E4C701B6010E94C70A181602
:1010600044F40F2EC12CD12CF4E3EF2EF3E4FF2E29
:10107000F02DC701B6010E94DF0970930E01609345
:101080000D01FF90EF90DF90CF9008951F920F9287
:101090000FB60F9211240F931F932F933F934F93EB
:1010A0005F936F937F938F939F93AF93BF93CF93F0
:1010B000DF93EF93FF93809188012EE1829FC0011F
:1010C000112490938701809386011092880180916A
:1010D0008401909185018130910561F420910B018B
:1010E00030910C01243B310529F410920E0110922D
:1010F0000D010EC0019761F480910B0190910C01DC
:10110000892B31F484EB90E090930E0180930D01D4
:1011100000910D0110910E01C0910B01D0910C01B5
:1011200098012C1B3D0BF90122F4EE27FF27E21B4F
:10113000F30BC901BF010E94390B34975CF0660FB5
:10114000771F660F771F6C0F7D1F70930C016093E4
:101150000B0109C02D5F3F4F2730310520F410935C
:101160000C0100930B0160910B0170910C01072E93
:10117000000C880B990B0E94170A20E030E044E332
:1011800053E40E946D0920E030E04AEF54E40E94ED
:10119000CC0A20E030E04AEF53E40E94FC080E94B1
:1011A000DF097093890060938800FF91EF91DF91D0
:1011B000CF91BF91AF919F918F917F916F915F91EF
:1011C0004F913F912F911F910F910F900FBE0F9054
:1011D0001F9018951F920F920FB60F9211248F93A4
:1011E000809188018F5F809388018F910F900FBE4F
:1011F0000F901F9018955058BB27AA270E941309DB
:101200000C948D0A0E947F0A38F00E94860A20F012
:1012100039F49F3F19F426F40C947C0A0EF4E095FF
:10122000E7FB0C94760AE92F0E949E0A58F3BA173E
:10123000620773078407950720F079F4A6F50C94EC
:10124000C00A0EF4E0950B2EBA2FA02D0B01B901A8
:1012500090010C01CA01A0011124FF27591B99F02C
:10126000593F50F4503E68F11A16F040A22F232F38
:10127000342F4427585FF3CF469537952795A79588
:10128000F0405395C9F77EF41F16BA0B620B730B2F
:10129000840BBAF09150A1F0FF0FBB1F661F771FA0
:1012A000881FC2F70EC0BA0F621F731F841F48F455
:1012B000879577956795B795F7959E3F08F0B0CFDE
:1012C0009395880F08F09927EE0F979587950895C5
:1012D0000E94520A08F481E008950E9481090C944A
:1012E0008D0A0E94860A58F00E947F0A40F029F475
:1012F0005F3F29F00C94760A51110C94C10A0C94AA
:101300007C0A0E949E0A68F39923B1F3552391F356
:10131000951B550BBB27AA2762177307840738F064
:101320009F5F5F4F220F331F441FAA1FA9F335D0C1
:101330000E2E3AF0E0E832D091505040E695001C75
:10134000CAF72BD0FE2F29D0660F771F881FBB1F2F
:10135000261737074807AB07B0E809F0BB0B802D0D
:10136000BF01FF2793585F4F3AF09E3F510578F039
:101370000C94760A0C94C10A5F3FE4F3983ED4F3D0
:10138000869577956795B795F7959F5FC9F7880F0D
:10139000911D9695879597F90895E1E0660F771F5F
:1013A000881FBB1F621773078407BA0720F0621BF0
:1013B000730B840BBA0BEE1F88F7E09508950E941B
:1013C000E6096894B1110C94C10A08950E94A60A16
:1013D00088F09F5798F0B92F9927B751B0F0E1F0F6
:1013E000660F771F881F991F1AF0BA95C9F714C0A6
:1013F000B13091F00E94C00AB1E008950C94C00A87
:10140000672F782F8827B85F39F0B93FCCF38695DE
:1014100077956795B395D9F73EF49095809570953B
:1014200061957F4F8F4F9F4F0895E89409C097FBB8
:101430003EF490958095709561957F4F8F4F9F4FAB
:101440009923A9F0F92F96E9BB279395F6958795EF
:1014500077956795B795F111F8CFFAF4BB0F11F4B2
:1014600060FF1BC06F5F7F4F8F4F9F4F16C0882359
:1014700011F096E911C0772321F09EE8872F762F8F
:1014800005C0662371F096E8862F70E060E02AF0D0
:101490009A95660F771F881FDAF7880F96958795BC
:1014A00097F90895990F0008550FAA0BE0E8FEEF91
:1014B00016161706E807F907C0F012161306E40718
:1014C000F50798F0621B730B840B950B39F40A2611
:1014D00061F0232B242B252B21F408950A2609F4EF
:1014E000A140A6958FEF811D811D089597F99F67F3
:1014F00080E870E060E008959FEF80EC089500249C
:101500000A941616170618060906089500240A9468
:1015100012161306140605060895092E0394000CEE
:1015200011F4882352F0BB0F40F4BF2B11F460FF7D
:1015300004C06F5F7F4F8F4F9F4F089557FD9058A6
:10154000440F551F59F05F3F71F04795880F97FB87
:10155000991F61F09F3F79F0879508951216130641
:101560001406551FF2CF4695F1DF08C01616170670
:101570001806991FF1CF86957105610508940895A5
:10158000E894BB2766277727CB0197F908950E9437
:10159000520A08F48FEF08950E94DF0A0C948D0A16
:1015A0000E947F0A38F00E94860A20F0952311F0ED
:1015B0000C94760A0C947C0A11240C94C10A0E94A3
:1015C0009E0A70F3959FC1F3950F50E0551F629FDF
:1015D000F001729FBB27F00DB11D639FAA27F00D8C
:1015E000B11DAA1F649F6627B00DA11D661F829FB3
:1015F0002227B00DA11D621F739FB00DA11D621F98
:10160000839FA00D611D221F749F3327A00D611DB4
:10161000231F849F600D211D822F762F6A2F112496
:101620009F5750409AF0F1F088234AF0EE0FFF1FC9
:10163000BB1F661F771F881F91505040A9F79E3F20
:10164000510580F00C94760A0C94C10A5F3FE4F3D4
:10165000983ED4F3869577956795B795F795E79576
:101660009F5FC1F7FE2B880F911D9695879597F97F
:10167000089597FB072E16F4009407D077FD09D044
:101680000E944D0B07FC05D03EF4909581959F4F2D
:101690000895709561957F4F0895AA1BBB1B51E17A
:1016A00007C0AA1FBB1FA617B70710F0A61BB70BD2
:1016B000881F991F5A95A9F780959095BC01CD0177
:1016C0000895AEE0B0E0E7E6FBE00C94220E0D8951
:1016D0001E8986E08C831A8309838FEF9FE79E83A0
:1016E0008D83AE01475E5F4F6F89788DCE01019685
:1016F0000E94830BEF81F885E00FF11F10822E9678
:10170000E4E00C943E0EABE0B0E0E9E8FBE00C94C2
:10171000140E6C017B018A01FC0117821682838101
:1017200081FFCCC1CE0101963C01F6019381F70106
:1017300093FD859193FF81917F01882309F4BAC1BC
:10174000853239F493FD859193FF81917F01853234
:1017500029F4B60190E00E947A0DE7CF912C212C5C
:10176000312CFFE1F315D8F08B3279F038F4803268
:1017700079F08332A1F4232D20611DC08D3261F0F8
:10178000803369F4232D216016C0832D8260382EAA
:10179000E32DE4603E2E2AC0F32DF8601DC037FC17
:1017A0002DC020ED280F2A3040F08E32B9F436FCDF
:1017B00081C1232D2064322E19C036FE06C08AE076
:1017C000989E200D1124922E11C0EAE02E9E200D2D
:1017D0001124222EF32DF0623F2E08C08C3621F406
:1017E000832D8068382E02C0883641F4F70193FDBE
:1017F000859193FF81917F018111B3CF982F9F7DB8
:101800009554933028F40C5F1F4F9FE399830DC0CC
:10181000833631F0833771F0833509F059C021C028
:10182000F801808189830E5F1F4F88248394912C57
:10183000530113C02801F2E04F0E511CF801A080A3
:10184000B18036FE03C0692D70E002C06FEF7FEFFC
:10185000C5010E946F0D4C018201F32DFF773F2ED1
:1018600016C0280122E0420E511CF801A080B18070
:1018700036FE03C0692D70E002C06FEF7FEFC50137
:101880000E94640D4C01F32DF0683F2E820133FC61
:101890001BC0822D90E088169906B0F4B60180E254
:1018A00090E00E947A0D2A94F4CFF50137FC8591DF
:1018B00037FE81915F01B60190E00E947A0D211000
:1018C0002A9421E0821A91088114910471F7E8C0EA
:1018D000843611F0893641F5F80137FE07C0608182
:1018E0007181828193810C5F1F4F08C0608171817B
:1018F000072E000C880B990B0E5F1F4FF32DFF7600
:101900003F2E97FF09C090958095709561957F4F08
:101910008F4F9F4FF0683F2E2AE030E0A3010E94D6
:10192000B60D882E861845C0853731F4232D2F7EBD
:10193000B22E2AE030E025C0932D997FB92E8F3644
:10194000C1F018F4883579F0B5C0803719F08837C0
:1019500021F0B0C0E92FE061BE2EB4FE0DC0FB2D1A
:10196000F460BF2E09C034FE0AC0292F2660B22EB3
:1019700006C028E030E005C020E130E002C020E1F0
:1019800032E0F801B7FE07C06081718182819381E6
:101990000C5F1F4F06C06081718180E090E00E5F98
:1019A0001F4FA3010E94B60D882E8618FB2DFF77CE
:1019B0003F2E36FE0DC0232D2E7FA22E891458F403
:1019C00034FE0BC032FC09C0832D8E7EA82E05C0CC
:1019D000B82CA32C03C0B82C01C0B92CA4FE0FC096
:1019E000FE01E80DF11D8081803321F49A2D997E4E
:1019F000A92E09C0A2FE06C0B394B39404C08A2DD8
:101A0000867809F0B394A3FC11C0A0FE06C0B214FE
:101A100088F4280C922C9B180EC0B21460F4B60106
:101A200080E290E00E947A0DB394F7CFB21418F4DC
:101A30002B1802C0982C212CA4FE10C0B60180E304
:101A400090E00E947A0DA2FE17C0A1FC03C088E7B7
:101A500090E002C088E590E0B6010CC08A2D86783F
:101A600059F0A1FE02C08BE201C080E2A7FC8DE22A
:101A7000B60190E00E947A0D891438F4B60180E333
:101A800090E00E947A0D9A94F7CF8A94F301E80DC2
:101A9000F11D8081B60190E00E947A0D8110F5CF92
:101AA000222009F442CEB60180E290E00E947A0D35
:101AB0002A94F6CFF6018681978102C08FEF9FEFBF
:101AC0002B96E2E10C94300EFC01059061507040C1
:101AD0000110D8F7809590958E0F9F1F0895FC01F7
:101AE0006150704001900110D8F7809590958E0F4D
:101AF0009F1F08950F931F93CF93DF93FB012381C3
:101B000021FD03C08FEF9FEF2CC022FF16C046813E
:101B10005781248135814217530744F4A081B18154
:101B20009D012F5F3F4F318320838C932681378126
:101B30002F5F3F4F3783268314C08B01EC01FB01DD
:101B40000084F185E02D0995892BE1F6D8011696E0
:101B50008D919C911797019617969C938E9316974B
:101B6000CE01DF91CF911F910F910895FA01AA271D
:101B7000283051F1203181F1E8946F936E7F6E5FD0
:101B80007F4F8F4F9F4FAF4FB1E03ED0B4E03CD07E
:101B9000670F781F891F9A1FA11D680F791F8A1F61
:101BA000911DA11D6A0F711D811D911DA11D20D0C8
:101BB00009F468943F912AE0269F11243019305D82
:101BC0003193DEF6CF010895462F4770405D419373
:101BD000B3E00FD0C9F7F6CF462F4F70405D4A33C0
:101BE00018F0495D31FD4052419302D0A9F7EACF88
:101BF000B4E0A6959795879577956795BA95C9F7B7
:101C000000976105710508959B01AC010A2E0694A9
:101C10005795479537952795BA95C9F7620F731F62
:101C2000841F951FA01D08952F923F924F925F929F
:101C30006F927F928F929F92AF92BF92CF92DF92DC
:101C4000EF92FF920F931F93CF93DF93CDB7DEB741
:101C5000CA1BDB0B0FB6F894DEBF0FBECDBF0994D5
:101C60002A88398848885F846E847D848C849B842C
:101C7000AA84B984C884DF80EE80FD800C811B813A
:101C8000AA81B981CE0FD11D0FB6F894DEBF0FBE69
:0A1C9000CDBFED010895F894FFCFD9
:101C9A0004000200020100010002005A005A003248
:101CAA00004C564C2025640054656D702025642034
:101CBA00460052504D20256400536D6172742046CF
:101CCA00616E004279204164616D206E204D696B1E
:101CDA006F00506F7765722046616E004D616E75B8
:101CEA00616C004175746F0046616E20416E676CCD
:101CFA00650046616E2053706565640054656D70B9
:0E1D0A000052504D204D6F6E69746F720000D4
:00000001FF
