S016000070726F6A5F736D6172745F66616E2E7372656339
S11300000C945A000C94C2000C946C000C946C0078
S11300100C946C000C946C000C946C000C946C00AC
S11300200C946C000C946C000C946C000C946C009C
S11300300C946C000C946C000C946C000C946C008C
S11300400C946C000C946C000C946C000C946C007C
S11300500C946C000C946C000C946C000C946C006C
S11300600C946C000C946C000C946C000C946C005C
S11300700C946C000C946C000C946C000C946C004C
S11300800C946C000C946C000C946C000C946C003C
S11300900C946C000C946C000C946C000C946C002C
S11300A00C946C000C946C000C94AA000C946C00DE
S11300B00C946C0011241FBECFEFD8E0DEBFCDBF7F
S11300C021E0A0E0B1E001C01D92A230B207E1F747
S11300D00E94D3000C94D8000C940000E0E9F0E0F6
S11300E0808182688083E1E9F0E080818961808396
S11300F08FE792E0909397008093960088EC90E0CD
S11301009093990080939800109295001092940017
S11301100895E0EAF0E0808180648083E1EAF0E021
S113012080818D60808388E09DE39093A900809313
S1130130A8001092A5001092A40008958AB18160CD
S11301408AB98AB18B7F8AB90E946E000E948900A5
S1130150789408951F920F920FB60F9211248F93E3
S11301609F93809101019EE1899F802D11248093AA
S11301700001109201019F918F910F900FBE0F907B
S11301801F9018951F920F920FB60F9211248F9300
S1130190809101018F5F809301018F910F900FBEB9
S11301A00F901F9018950E949E0080E090E00895A3
S10701B0F894FFCFED
S9030000FC
